:020000040800F2
:1000000070080020CD010008F10B0008E90B000882
:10001000ED0B000851060008131500080000000051
:10002000000000000000000000000000BD0E0008FD
:10003000D10A000800000000790C00085D110008DA
:10004000E7010008E7010008E7010008E7010008F0
:10005000E7010008E7010008E7010008E7010008E0
:10006000E7010008E7010008E7010008E7010008D0
:10007000E7010008E7010008E7010008E7010008C0
:10008000E7010008E7010008E7010008E7010008B0
:10009000E7010008E7010008E7010008E7010008A0
:1000A000E7010008E7010008E7010008E701000890
:1000B000E7010008E7010008E7010008E701000880
:1000C000E7010008E7010008E7010008E701000870
:1000D000E701000869120008E7010008E5120008BE
:1000E000E7010008E7010008E7010008E701000850
:1000F000E7010008E7010008E7010008E701000840
:10010000E7010008E7010008C1110008E701000845
:10011000E7010008E701000801120008E7010008F4
:10012000E7010008E7010008E7010008E70100080F
:1001300000F002F800F03AF80AA090E8000C8244BF
:100140008344AAF10107DA4501D100F02FF8AFF29C
:10015000090EBAE80F0013F0010F18BFFB1A43F0A5
:100160000103184780240000A0240000103A24BF97
:1001700078C878C1FAD8520724BF30C830C144BF0C
:1001800004680C607047000000230024002500264E
:10019000103A28BF78C1FBD8520728BF30C148BFEA
:1001A0000B6070471FB51FBD10B510BD00F031F8D2
:1001B0001146FFF7F7FF01F0B9FA00F04FF803B46A
:1001C000FFF7F2FF03BC00F057F800000948804732
:1001D00009480047FEE7FEE7FEE7FEE7FEE7FEE729
:1001E000FEE7FEE7FEE7FEE704480549054A064B41
:1001F0007047000061110008310100087002002002
:1002000070080020700400207004002070477047C0
:100210007047754600F02CF8AE4605006946534617
:1002200020F00700854618B020B5FFF7DDFFBDE8D8
:1002300020404FF000064FF000074FF000084FF04D
:10024000000B21F00701AC46ACE8C009ACE8C009DE
:10025000ACE8C009ACE8C0098D46704710B504464B
:10026000AFF300802046BDE81040FFF7A8BF0000B4
:10027000004870470C02002001491820ABBEFEE781
:1002800026000200704721B1826842F001028260BC
:1002900003E0826822F001028260704721B1826827
:1002A00042F48072826003E0826822F4807282608D
:1002B0007047000000B591B00121480200F00AFD2E
:1002C0000121084600F0E6FC364800F037FB3648CE
:1002D00001903648029000200390022004900020F4
:1002E0000590802006904000079080000890202014
:1002F000099000020A9000200B9001A9294800F003
:10030000C7FB0121274800F00DFB00200C900120C5
:100310008DF834008DF835004FF460200E900020E9
:100320000F9002208DF840000CA91F484C3800F0B7
:1003300065F84FF4404000F0A1FC052301220E2196
:1003400019484C3800F082F8052302220F21164884
:100350004C3800F07BF8012113484C38FFF79EFF22
:10036000012111484C38FFF78EFF0F484C3800F040
:10037000C9F800BF0C484C3800F036F80028F9D115
:1003800009484C3800F0CEF800BF07484C3800F060
:1003900021F80028F9D1012103484C3800F0B7F8C2
:1003A00011B000BD080002404C240140B400002000
:1003B00008B50121102000F08DFC00208DF803000D
:1003C0003020ADF800006946014800F082FB08BD0E
:1003D00000100140014600208A6802F004020AB1C0
:1003E000012000E000207047014600208A6802F0EA
:1003F00008020AB1012000E00020704730B5024633
:100400000020002350680F4C20400D790C6844EA0E
:1004100005242043506090680B4C2040D1E90254E1
:100420002C434D7944EA450420439060D06A20F47F
:1004300070000C7C641EE4B2234340EA0350D06297
:1004400030BD0000FFFEF0FFFDF7F1FFF0B5044600
:100450000D4600200021092D11DDE068A5F10A06F6
:1004600006EB4607072606FA07F18843A5F10A06B8
:1004700006EB460603FA06F10843E0600CE020694B
:1004800005EB4507072606FA07F1884305EB450605
:1004900003FA06F108432061072A0FDA606B561E43
:1004A00006EB86071F2606FA07F18843561E06EB61
:1004B000860605FA06F10843606322E00D2A0FDA8A
:1004C000206BD61F06EB86071F2606FA07F1884326
:1004D000D61F06EB860605FA06F10843206310E0F6
:1004E000E06AA2F10D0606EB86071F2606FA07F161
:1004F0008843A2F10D0606EB860605FA06F10843CD
:10050000E062F0BD816841F008018160704721B16F
:10051000826842F4A002826003E0826822F4A002B2
:1005200082607047816841F004018160704700007B
:1005300070B58CB004460D46174800F0FFF9012154
:10054000084600F0A7FB154801900294049500208E
:1005500003900590802006900020079008900B9053
:1005600009904FF400500A9001A90B4800F090FA4E
:100570000121094800F0D6F9012240210748001F57
:1005800000F0EDFE0548001F0088C6B20348008851
:10059000C6B20CB070BD00003000024004480040FC
:1005A00000B587B00121082000F084FB01218804F8
:1005B00000F080FB4FF40060ADF8180004208DF8C7
:1005C0001B0006A9204800F084FA4FF48060ADF8C3
:1005D000180018208DF81B0003208DF81A0006A9BA
:1005E000194800F076FA4FF4165002900020ADF84A
:1005F0000C00ADF80E00ADF81000ADF814000C20A2
:10060000ADF8120002A9114800F00EFF27208DF866
:1006100004004FF4C06000F025FB01208DF80500B8
:100620008DF806008DF8070001A800F0E3FA01221A
:1006300040F22441054800F0D2FE0121034800F0B9
:1006400082FE07B000BD0000000C014000480040E1
:1006500000BFFEE72DE9F0470746002400260025ED
:10066000A6480078FF287DD1012F06D0032F4FD058
:10067000112F78D0122F77D113E10D25AA22214610
:10068000641C9F48425455222146641C4254204613
:10069000641C9B490D542046641C0F5400222146C3
:1006A000641C974842542146641C42542146641CF1
:1006B00042542046641C92490A54924802782146CA
:1006C000641C8F4842548F4842782046641C8C49F1
:1006D0000A548C4882792046641C0A548948C2799D
:1006E0002046641C0A54A81E095CE81E844A105C5B
:1006F0000144281F105C0144681F105C0E18F6B2FC
:100700002046641C11460E5400207C490870F1E01C
:100710001125AA222046641C79490A5455222046F4
:10072000641C0A542046641C0D542046641C0F545B
:10073000754802782046641C0A5473484278214662
:10074000641C6F484254704882782146641C6C488F
:1007500042546D48C2782046641C69490A546B486B
:10076000027802E0C7E073E0C3E02046641C0A544C
:10077000664842782046641C0A54644882782146C0
:10078000641C5F4842546148C2782046641C5C493E
:100790000A545F4802782046641C0A545C4800787A
:1007A000012818D15B48006801F03AFD5A494870A9
:1007B000487801F051FD824656480168504601F0E4
:1007C00090FE8146554901F08FFD804601F028FDDD
:1007D0005149887017E05248006801F021FD4E49E8
:1007E0004870487801F038FD82464D48016850460F
:1007F00001F077FE8146494901F076FD804601F01F
:100800000FFD45498870444840782146641C3C4AA5
:100810005054414880782146641C5054112220468F
:10082000641C37490A54A81E095CE81E344A105C4F
:100830000144281F105C0144681F105C0E18F6B2BA
:100840002046641C11460E5400202C49087051E0CB
:100850000625AA222146641C2948425455222146D5
:10086000641C42542046641C25490D542046641CD7
:100870000F542046641C0F54A81E095CE81E204A31
:10088000105C0144281F105C0144681F105C0E18A6
:10089000F6B22046641C11460E5400201749087019
:1008A00028E00625AA222046641C15490A54552230
:1008B0002046641C0A542046641C0D542046641CC7
:1008C0000F542046641C0F54A81E095CE81E0C4AF5
:1008D000105C0144281F105C0144681F105C0E1856
:1008E000F6B22046641C11460E54002003490870DD
:1008F00000E000BF00BFBDE8F087000081000020DD
:10090000D8010020820000208A0000208E000020F4
:100910009200002094000020A70000200000C842A0
:100920009800002021B1026842F00102026004E058
:1009300002684FF6FE731A400260704701684FF676
:10094000FE72114001600021016041608160C16060
:100950004B49884208D14A490839496841F00F019A
:10096000474A083A51608AE045491431884208D123
:1009700043490839496841F0F001414A083A516059
:100980007DE03F492831884208D13D49083949680E
:1009900041F470613A4A083A516070E038493C319C
:1009A000884208D136490839496841F47041344ACF
:1009B000083A516063E032495031884208D13049E9
:1009C0000839496841F470212D4A083A516056E0CF
:1009D0002B496431884208D129490839496841F4D2
:1009E0007001274A083A516049E025497831884228
:1009F00008D123490839496841F07061204A083A12
:100A000051603CE01F49884206D1011F096841F04E
:100A10000F01021F116032E01A491431884208D1D7
:100A20001849091F096841F0F001164A121F1160A8
:100A300025E014492831884208D11249091F096864
:100A400041F470610F4A121F116018E00D493C31EA
:100A5000884208D10B49091F096841F47041094ACD
:100A6000121F11600BE007495031884207D1054938
:100A7000091F096841F47021024A121F1160704772
:100A800008000240080402400146486880B27047EE
:100A900010B50022026847F6F0739A430C6A8B681F
:100AA00023430C6923434C6923438C692343CC695A
:100AB00023434C6A23438C6A23431A430260CB6866
:100AC00043600B6883604B68C36010BD4160704732
:100AD00070472DE9F0410246002500260020002342
:100AE0000024002791F803C00CF00F0591F803C013
:100AF0000CF0100CBCF1000F03D091F802C04CEACE
:100B0000050591F800C0BCF1000F31D01468002039
:100B10002BE04FF0010C0CFA00F3B1F800C00CEA26
:100B200003069E4220D183004FF00F0C0CFA03F70E
:100B3000BC4305FA03FC4CEA040491F803C0BCF181
:100B4000280F06D14FF0010C0CFA00FCC2F814C0BB
:100B50000AE091F803C0BCF1480F05D14FF0010C39
:100B60000CFA00FCC2F810C0401C0828D1D3146055
:100B7000B1F800C0BCF1FF0F34DD546800202EE056
:100B800000F1080C4FF0010808FA0CF3B1F800C0AE
:100B90000CEA03069E4221D183004FF00F0C0CFAA1
:100BA00003F7BC4305FA03FC4CEA040491F803C0C4
:100BB000BCF1280F05D100F1080C08FA0CF8C2F8B6
:100BC000148091F803C0BCF1480F07D100F1080C64
:100BD0004FF0010808FA0CF8C2F81080401C0828F1
:100BE000CED35460BDE8F08100BFFEE700BFFEE752
:100BF0007047000070B5002100230F22C47804B3B1
:100C0000154C246804F4E064C4F5E064210AC1F1E1
:100C10000403CA40447804FA03F184781440214361
:100C200009010E4C0678A155047804F01F05012433
:100C3000AC4005786D11AD0005F1E025C5F8004127
:100C400009E0047804F01F050124AC40044D067847
:100C5000761145F8264070BD0CED00E000E400E0A0
:100C600080E100E002490143024A11607047000040
:100C70000000FA050CED00E070470000014600207E
:100C8000034A506820F44040084350607047000019
:100C90000010024029B1064A52690243044B5A61CE
:100CA00004E0034A52698243014B5A6170470000D5
:100CB0000010024029B1064AD2690243044BDA61AE
:100CC00004E0034AD2698243014BDA6170470000B5
:100CD0000010024029B1064A92690243044B9A610E
:100CE00004E0034A92698243014B9A617047000015
:100CF0000010024030B500210022002400232D4DB9
:100D00006D6805F00C0121B1042905D0082923D113
:100D100005E0294D056022E0274D05601FE0254DC7
:100D20006D6805F47012234D6D6805F4803402255A
:100D300005EB92421CB9214D554305600BE01D4D5A
:100D40006D6805F400351DB11C4D5543056002E08A
:100D5000194D5543056002E0174D056000BF00BF07
:100D6000144D6D6805F0F0010909154D6B5C0568BF
:100D7000DD4045600F4D6D6805F4E061090A104DD6
:100D80006B5C4568DD4085600A4D6D6805F4605117
:100D9000C90A0B4D6B5C4568DD40C560054D6D684B
:100DA00005F44041890B074D6B5CC568B5FBF3F555
:100DB000056130BD0010024000127A0000093D00BC
:100DC000140000202400002000B587B00121042079
:100DD000FFF780FF01218803FFF77CFF4FF480605D
:100DE000ADF8180004208DF81B0006A92048FFF775
:100DF00070FE4FF40070ADF8180018208DF81B003D
:100E000003208DF81A0006A91948FFF762FE4FF477
:100E1000E13002900020ADF80C00ADF80E00ADF806
:100E20001000ADF814000C20ADF8120002A9114812
:100E300000F0FAFA25208DF804004FF4C060FFF7A7
:100E400011FF01208DF805008DF806008DF80700D0
:100E500001A8FFF7CFFE012240F22551054800F01E
:100E6000BEFA0121034800F06EFA07B000BD000091
:100E7000000801400038014010B5044621460748EB
:100E800000F043FB00BF4021044800F071FA002845
:100E9000F9D04021014800F04DFA10BD0038014062
:100EA00070B50446002504E0605DFFF7E5FF681CAF
:100EB000C5B22078401CA842F6DC70BD7047000027
:100EC00010B50A490A4A1278885C00F0FBF9084814
:100ED0000078401C064908700448807809788842E8
:100EE00002DCFF200249087010BD0000D80100207C
:100EF0008100002010B500F001F810BD0CB50020F5
:100F0000019000903348006840F480303149086017
:100F100000BF3048006800F4003000900198401C89
:100F20000190009818B90198B0F5A06FF1D1294847
:100F3000006800F4003010B10120009001E00020B2
:100F400000900098012843D12348006840F0100029
:100F5000214908600846006820F003000860084640
:100F6000006840F0020008601A484068194948606B
:100F70000846406848600846406840F48060486021
:100F80000846406820F47C1048600846406840F4F9
:100F9000E81048600846006840F08070086000BFB4
:100FA0000C48006800F000700028F9D0094840683B
:100FB00020F00300074948600846406840F00200FE
:100FC000486000BF0348406800F00C000828F9D1D1
:100FD0000CBD0000001002400020024010B54D483A
:100FE0000078032845D005DC48B1012815D0022837
:100FF0006FD114E0122878D01328F9D10EE0FFF752
:10100000E3FE00F03BFCFFF7CBFA14214248FFF768
:101010008FFA02203F49087079E078E077E03F4896
:101020000088B0F5FA7F0AD13D48006808B9012070
:1010300000E000203A49086000203849088039481B
:10104000007858B1012802D002280FD107E0032010
:101050003049087000203449087008E007E0122089
:101060002C49087000202F49087000E000BF00BF25
:101070004DE02A480088B0F5FA7F0AD12B48006875
:1010800008B9012000E00020284908600020234919
:1010900008802548007878B90320FFF7DBFA04E0E0
:1010A000FFF70EFF012000F0D9FA21480078FF2851
:1010B000F6D101201C4908701A48007828B101288F
:1010C00002D002280ED106E00DE00220114908707E
:1010D00009E01BE009E012200E49087000201149C8
:1010E000087000E000BF00BF11E01220FFF7B2FA65
:1010F00004E0FFF7E5FE012000F0B0FA0C480078AC
:10110000FF28F6D102200349087000E000BF00BFAD
:1011100010BD000070000020F601002074000020C7
:10112000A401224271000020720000209401234299
:1011300081000020042808D14FF0E021096941F026
:1011400004014FF0E022116107E04FF0E02109694E
:1011500021F004014FF0E022116170477047000058
:1011600010B51348006840F00100114908600846B6
:101170004068104908400E494860084600680E491A
:1011800008400B4908600846006820F48020086089
:101190000846406820F4FE0048604FF41F00886055
:1011A000FFF7A8FE4FF000600449086010BD000082
:1011B000001002400000FFF8FFFFF6FE08ED00E01F
:1011C00010B500210C4800F032F801210A4800F067
:1011D0003AF880B10121084800F026F80748008855
:1011E000401C0649088000F097F9FFF7F7FE01213F
:1011F000014800F01CF810BD000C004074000020F5
:1012000010B50121064800F01EF840B10121044844
:1012100000F00AF803480068401C0249086010BD4D
:10122000001000406C000020CA430282704721B1C8
:10123000028842F00102028004E002884FF6FE7349
:101240001A400280704730B5024600200023002477
:10125000158A05EA0103958905EA010413B10CB169
:10126000012000E0002030BD10B540F225511148AA
:1012700000F08BF8E0B120210E4800F079F8B8B109
:1012800020210C4800F056F80A4800F039F9C4B2A1
:1012900009480A490988445408480088401C0749FD
:1012A000088008460088052802D1012004490870FA
:1012B00010BD000000380140D4000020760000205E
:1012C0007D00002010B504462146054800F01DF9B8
:1012D00000BF4021024800F04BF80028F9D010BDB3
:1012E0000044004010B540F224410F4800F04DF892
:1012F000C8B10D480088C4B20B48001D0088C4B2B4
:1013000000210A48FFF70EFB0848FFF7BDFBC4B2F7
:1013100014210648FFF7DAFB01210448FFF702FB1E
:1013200001200349087010BD004800403000024011
:10133000AB00002001F40072B2F5007F00D100BFC5
:10134000CA430280704721B1828942F400528281EF
:1013500004E082894DF6FF731A40828170471AB10A
:10136000838A0B43838202E0838A8B4383827047A4
:1013700002460020B1F5007F00D100BF13880B406A
:101380000BB1012000E00020704770B50246002438
:1013900000230025002040F66A16B14200D100BFAC
:1013A000C1F3421501F01F03012606FA03F3012DD4
:1013B00002D19689334006E0022D02D1168A3340CD
:1013C00001E0968A33400C12012606FA04F41688CE
:1013D000344013B10CB1012000E0002070BDF0B525
:1013E0000346002400260025002040F66A17B94273
:1013F00000D100BF1846C1F3421401F01F060127B7
:1014000007FA06F5012C01D10C3004E0022C01D1C1
:10141000103000E014301AB107682F43076002E073
:101420000768AF430760F0BD2DE9F04786B0054679
:101430000E460024A24600BFA1460027B08900B195
:1014400000BF2F462C8A4CF6FF700440F0880443FE
:101450002C82AC894EF6F3100440B08831890843E1
:10146000718908430443AC81AC8A4FF6FF400440C5
:10147000B0890443AC8201A8FFF73CFC1F488742B7
:1014800002D1DDF810A001E0DDF80CA0A88900F47D
:10149000004040B10AEBCA0000EB0A103168490075
:1014A000B0FBF1F807E00AEBCA0000EB0A10316864
:1014B0008900B0FBF1F86420B8FBF0F004012009CA
:1014C000642101FB1089A88900F4004040B132205A
:1014D00000EBC900B0FBF1F000F00700044308E0A6
:1014E000322000EB09106421B0FBF1F000F00F0096
:1014F00004432C8106B0BDE8F087000000380140AD
:1015000001468888C0F308007047C1F30802828052
:10151000704700BFFEE700002DE9F0413548007834
:10152000012864D134488078344988703248C078C2
:10153000C8703148007908710846FFF7B1FC2E48A1
:101540000078AA2844D12C484078FF2840D12A4866
:101550008078552818D10120294908702649097931
:10156000254AD27841EA022000F076FB06460022A6
:10157000244B00F019FA044600F0D8F9224908601B
:1015800001202249087023E01B488078492818D19F
:1015900000201B49087018490979174AD27841EA96
:1015A000022000F059FB06460022164B00F0FCF921
:1015B000044600F0BBF91649086001201349087081
:1015C00006E00D4880784E2802D102200F490870AD
:1015D000002003E00021084A1154401C0D490988ED
:1015E0008842F7DB00200B49088002490870BDE8FB
:1015F000F08100007D000020D40000207800002051
:10160000920000200000594094000020710000204A
:10161000980000207600002010B56FF00400FFF75E
:1016200089FD0A4800680A49B0FBF1F009490870D1
:101630000846007800EB4001C1EBC0104FF6FF7187
:1016400001EAC0000449088010BD0000000000202D
:1016500000127A00280000202A00002070B50446FD
:101660004FF4077094FBF0F0C6B24FF4077094FB90
:10167000F0F100FB114085B205E04FF4077000F077
:101680002FF8701EC6B2002EF7D115B1284600F013
:1016900027F870BD0146114A12784A434FF0E02303
:1016A0005A6100229A611A46126942F001021A61D7
:1016B00000BF4FF0E022106900F001021AB100F4FF
:1016C0008032002AF5D04FF0E022126922F00102A8
:1016D0004FF0E0231A6100229A6170472800002031
:1016E0000146114A12884A434FF0E0235A61002212
:1016F0009A611A46126942F001021A6100BF4FF066
:10170000E022106900F001021AB100F48032002AD0
:10171000F5D04FF0E022126922F001024FF0E023F1
:101720001A6100229A6170472A0000204FF00009D8
:1017300000BFFFF749FBFFF713FDFFF76DFF4248BE
:10174000FFF7A8FF4FF4C060FFF78CFAFEF730FEFA
:10175000FEF7B0FD77E0FF20FFF78EFB00246AE084
:101760003A4931F8140000F077FD83464FF08B4181
:1017700000F094FC824600F0F7FB07464FF066321B
:10178000334B00F0BDFA054600F0D0F8314941F87E
:101790002400002C4DD1084650F824904FF0804191
:1017A000484600F06DFE03D23020FFF765FB40E0B5
:1017B000484600F0D9FB0546274A284B00F09EFB1F
:1017C00003D24020FFF758FB33E0484600F0CCFB43
:1017D00005460022224B00F091FB03D25020FFF778
:1017E0004BFB26E0484600F0BFFB05461D4A1E4B5A
:1017F00000F084FB03D26020FFF73EFB19E048466F
:1018000000F0B2FB05464FF03332184B00F076FB88
:1018100003D27020FFF730FB0BE0484600F0A4FB3A
:101820000546134A134B00F069FB02D29020FFF7E4
:1018300023FB601CC4B2022C92DBEE20FFF71CFBE2
:101840000D48FFF727FF86E7A0860100B4000020BF
:1018500066660A40BC000020CDCCCCCCCCCCF83F96
:101860000000F43F9A9999999999F13F3333EB3FEE
:101870005C8FC2F5285CE73F005A620200B587B072
:1018800001210420FFF726FA01214804FFF712FA8C
:101890000420ADF8180018208DF81B0003208DF8E7
:1018A0001A0006A91F48FFF714F90820ADF8180020
:1018B00004208DF81B0006A91A48FFF70AF94FF417
:1018C000E13002900020ADF80C00ADF80E00ADF84C
:1018D0001000ADF814000C20ADF8120002A9124857
:1018E000FFF7A2FD4FF4C060FFF7BCF926208DF88A
:1018F000040001208DF8050002208DF8060001206B
:101900008DF8070001A8FFF775F9012240F2255173
:101910000548FFF764FD01210348FFF714FD07B0F8
:1019200000BD0000000801400044004021F00042DA
:10193000A2F16052B2F5801F01F0004328BFD2F13E
:101940007F6C0BD95FEA001C43EAC20242EB507085
:1019500018BF704728BF20F001007047B2F5801F04
:10196000BCBF184670474FEA410C1CF5001F02D25D
:10197000084600F080BD70B500F06CFA00000089E8
:10198000FFF7F6BF4FF00040A0F580007047491008
:1019900058BFC1F140415B1058BFC3F140438B4277
:1019A000EFF30080704700002DE9C04130B4DFF84C
:1019B000A0C23CEA111418BF3CEA131400F0EC80FA
:1019C00081EA03051CEA111444EAD57418BF1CEA25
:1019D000131500F0C780A4EB05044FF0004545EA5D
:1019E000C12145EAC32341EA505143EA525304F16D
:1019F0007F74994204F500344FEAC0204FEAC222B6
:101A000008BF904200F09C804FEA13650FF2401629
:101A1000765D4FEA134506FB05F7C7F1807706FBB5
:101A200007F74FEAD737A7FB03687642C8F5803837
:101A3000A7FB06CE38BFA8F1010807FB08E64FF068
:101A4000000EA6FB028CE6FB03CEDCF1000CCEF10F
:101A5000004E38BFAEF1010EA6FB0C584FF0000748
:101A60004FF00005E6FB0E87A1FB08C6A0FB07CEE2
:101A700016EB0E0645F10005E1FB076515F1E04E9A
:101A80007EBFA4F580345FEA46066D4116F18007FB
:101A900045F100054FEA17274FEA066647EA056752
:101AA000A6F1DE46B6F1805F4FEA15251FD938460C
:101AB00024F0010C05EBC471BCF1FE6F01EB0C11BD
:101AC00002D8F0BCBDE8008124425CBF01F5801E55
:101AD0009EEAC47F02D4F0BCBDE80081244238D421
:101AE000F0BCA1F1C041BDE8004100F001BA4FEAED
:101AF000D22242EA43524FEAD323A7FB02864FEA9F
:101B0000D02040EA415007FB03661EEA0E0F4FEA61
:101B1000D12105FB026658BFA6EB0056B6EB005676
:101B20004FEA520E4EEAC37E18EB0E0E56EB530EE2
:101B3000BDD518EB02085E417F1C55F10005B6E7E4
:101B40004FF480154FF000074FF000064FF00008EB
:101B5000ADE7F0BC4FF0000001F1C04101F00041E1
:101B6000BDE8008111EA0C1F0CEA131500D00CE04F
:101B700013EA0C1F00F025804FF00000F0BC81EA52
:101B8000030101F00041BDE80081F0BCBDE8004167
:101B900081EA030100F0ACB9F0BCBDE8004170B5CA
:101BA00000F058F9097EFC3E00F007B881EA030115
:101BB0004FF0000001F00041704781EA030100F09E
:101BC00097B9F0BCBDE800414FF0000021497047D3
:101BD000FFFDFBF9F7F5F4F2F0EEEDEBE9E8E6E4F2
:101BE000E3E1E0DEDDDBDAD8D7D5D4D3D1D0CFCD79
:101BF000CCCBCAC8C7C6C5C4C2C1C0BFBEBDBCBBB2
:101C0000BAB9B8B7B6B5B4B3B2B1B0AFAEADACABAC
:101C1000AAA9A8A8A7A6A5A4A3A3A2A1A09F9F9E86
:101C20009D9C9C9B9A999998979796959594939338
:101C3000929191908F8F8E8E8D8C8C8B8B8A8989CF
:101C40008888878786858584848383828281818052
:101C50000000FF070000F87F10F0004248BF40423C
:101C6000B0FA80F310FA03F10AD0C3F11D0303F5B3
:101C700080634FEA415002EB035202EBD1217047DF
:101C80004FF000007047000051EA030C17D41CF518
:101C9000801F58BFBCF5801F00F10680994218BF15
:101CA000704708BF9042704707D711F5801F58BF93
:101CB00013F5801F19D499427047894270471CF56B
:101CC000801F08D5BCF5801FF7D58B4218BF704721
:101CD00008BF824270474FF4001C1CEB410F38BF15
:101CE0001CEB430F01D28B42704770B500F0B2F885
:101CF000922449004FF000514FF08053FFF747BE48
:101D0000DFF848C170B51CEA111E1EBF1CEA13158E
:101D10009EEA0C0F95EA0C0F00F06F8081EA030435
:101D200023EA4C134EEAD47E21EA4C1141F480118F
:101D300043F48013AE44A1FB024CA0FB0365AEF15B
:101D40007F7E361955EB0C05A1FB034C4CF10003CB
:101D5000A0FB021C16EB0C06654153F1000309427F
:101D600018BF46F0010613F4007F0BD14FEA033190
:101D70004FEA0530340341EA155140EA16506FF03E
:101D800003020AE04FEAC3214FEAC520F40241EA08
:101D9000555140EA56506FF0020202EB2E4201EB21
:101DA000025585EACE710AD05FEA440C18BF24F0D0
:101DB000004450F1000041F1000120EAD47040F2EB
:101DC000FE7C624500D270BDA84214BF4FF0804433
:101DD0004FF04044002E08BF0024BEF1806FA8BF22
:101DE000A1F1C041BDE8704080F282804FF0000058
:101DF00001F1C04101F0004170479EEA0C0F0CEA6E
:101E0000131518BF95EA0C0F06D04FF0000081EAB9
:101E1000030E0EF0004170BD00F01CF88900013E79
:101E200000F007B800F009B84FEA430C5FEA5C5CC9
:101E300008D081EA030100F05BB84FEA410C5FEA89
:101E40005C5CF6D14FF00000014970470000FF07CD
:101E50000000F87F0EF1020E2EF0030E5EF8046B08
:101E6000364205D4012A43EB030515F5001F12D8AD
:101E7000012841EB010C1CF5001F0CD80ED14FEAD4
:101E8000D17C15F5001F0CEB4C0C0CF1020C08BFBB
:101E90004CEBD37C04E04FF0080C01E04FEAD37C1C
:101EA0000CEB4C0526FA05F606F00706B6F1040C15
:101EB00006D20EEB860CBDE870404CF0010C60477A
:101EC000DFE80CF0090B02024FF000414FF0000078
:101ED000A1F5002170BD19461046012851EB0104FF
:101EE00018BFD4F5001484BF002001F0004170BD7C
:101EF0000808A0F500114FEA3101704753EA010CC0
:101F000017D41CF5801F58BFBCF5801F00F1068058
:101F10008B4218BF704708BF8242704707D713F53E
:101F2000801F58BF11F5801F19D48B4270479B4208
:101F300070471CF5801F08D5BCF5801FF7D5994266
:101F400018BF704708BF904270474FF4001C1CEB4D
:101F5000430F38BF1CEB410F01D2994270470FB4B9
:101F60000CBC03BCFFF7C1BE43004FEAD30C4FEAE1
:101F70003C0C43401FBF40070CF1605113F0FE4F73
:101F800070471CF0006F03D100200CF00041704737
:101F90000CF0004343EA507010B540EACC0000F06A
:101FA00024FA00BF000000924FEA0001FFF7A0BF33
:101FB0004FF000414FF00000A1F5002170470000F4
:101FC00090EA010F48BF81F0004100F19C82421A63
:101FD0003CBF801A89184FEAD0524FF07F4C1CEA60
:101FE000410FA2EBD15318BF9CEA026F00F03B8077
:101FF0004FF0004C4CEA00204CEA012121FA03FC8E
:1020000010EB0C0C1ED202F1FF325FEA1C2040EBF9
:10201000C25038BF70471CF07F0F4FEA400C18BF0A
:10202000BCF17F4F38BF7047C3F12003994008BF10
:1020300020F00100BCF17F4F38BF7047A0F1C040D5
:1020400000F019BA4FEA3C00000A40EBC25028BF2A
:102050001CF0FF0F4FEA400CE6D018BFBCF17F4FD9
:1020600038BF7047EAE79CEA026F05D010EA5C0FC0
:1020700008BF00F00040704710B500F0B6F900BF8F
:1020800064FBBE3E401058BFC0F14040491058BFED
:10209000C1F140418142EFF3008070474FF47F0C63
:1020A0001CEAD0121EBF1CEAD11392EA0C0F93EA6D
:1020B0000C0F00F0858090EA010F48BF42F4807257
:1020C00040F4000C41F400002CF07F4120F07F40F0
:1020D00000B58142A2EB03020FF2081CACEB504E9C
:1020E000C0F100009EF800E04FEA4E0E00FB0EFC2F
:1020F00038BF49004FEA2C1C02F5FA020CFB0EF324
:102100004FEACE1E4FEA112C4FEAC1210EEB635E5F
:1021100042EB22420EFB0CFC4FEA1C5300FB031166
:102120004FEA112C4FEA01310EFB0CFC4FEADC4C5C
:1021300000FB0C11C14228BF09184CEB03335DF8BA
:1021400004EB10EB410143EBC250B2F57C0F38BFFA
:10215000704729D512F0F00F1CBF00F1C04000F00D
:1021600000407047008182838485868788898B8CB4
:102170008D8E8F919293959697999A9C9D9FA0A2F0
:10218000A3A5A7A8AAACAEB0B2B3B5B7B9BCBEC040
:10219000C2C5C7C9CCCED1D4D7D9DCDFE2E6E9ECE1
:1021A000F0F3F7FAFE0000004FEA400C0CF1807CDF
:1021B000BCF17E4F28BF7047B0F1C04000F05BB962
:1021C00090EA010F0CEAD11348BF42F480726245D5
:1021D00038BF634507D213F47F0F16D080EA0100A1
:1021E00000F00040704710B500F0FFF8097EFC3E9B
:1021F00000F005B880EA010000F00040704780EA76
:10220000010000F0004000F036B912F47F0F04BF67
:102210000248704780EA010000F02DB90000C07F3D
:1022200041000B0ED3F19E0208D950F400034FEA8F
:10223000032323FA02F048BF4042704710B500F074
:10224000D4F800BF49922480002070476FF000420C
:1022500082EA200070470000B0FA80F310FA03F21F
:10226000C3F19D030AD0D90501EB1220530638BFF4
:10227000704700F1010008BF20F001007047000026
:1022800050EA010C00F113801CF5000F58BFBCF59B
:10229000000F01D48842704707D710F5000F58BFD0
:1022A00011F5000F15D488427047894270471CF51C
:1022B000000F04D5BCF5000FF7D5814270474FF0F1
:1022C000807C1CEB400F38BF1CEB410F01D28142D8
:1022D000704710B500F089F8922449004FF0005083
:1022E0004FF08051FFF7CEBE4FF47F0C1CEAD012A6
:1022F0001EBF1CEAD11392EA0C0F93EA0C0F00F0F8
:10230000478090EA010F48BF42F480724FF0004CC2
:102310004CEA00204CEA012102EB0302A0FB01136E
:10232000A2F50002002918BF43F001035B0028BF9B
:102330004FEA330342EB22425FEA132C4CEBC250CC
:102340002EBFBCEB436FB2F57C0F70474FEA036CB6
:10235000BCF1004F08BF20F00100B2F57C0F38BF80
:1023600070470BD582F0FF0212F5803FC8BF70475F
:1023700000F1C040D8BF00F00040704700F5000CED
:102380005FEA4C0C48BF7047B0F1C04000F073B832
:1023900090EA010F0CEAD11348BF42F48072624503
:1023A00038BF634504D280EA010000F00040704766
:1023B00010B500F01AF800BF8900013E00F007B820
:1023C00000F009B85FEA410C5FEA1C6C08D080EAB3
:1023D000010000F050B85FEA400C5FEA1C6CF6D1D7
:1023E0004FF00040A0F5800070470EF1020E2EF075
:1023F000030E5EF8044B244204D44FEA4102B2F1CA
:102400007F4F11D84FEA4003B3F17F4F0CD80ED164
:102410004FEAD07CB2F17F4F0CEB4C0C0CF1020C6C
:1024200008BF4CEBD17C04E04FF0080C01E04FEA10
:10243000D17C0CEB4C0324FA03F404F00704B4F150
:10244000040C06D20EEB840CBDE810404CF0010CDD
:102450006047DFE80CF0070802024FF00040A0F5EB
:10246000800010BD0846420018BFD2F1807288BFBC
:1024700000F0004010BDFF2141EAD050C005704778
:1024800051EA000C00F113801CF5000F58BFBCF599
:10249000000F01D48142704707D711F5000F58BFD4
:1024A00010F5000F15D481427047894270471CF522
:1024B000000F04D5BCF5000FF7D5884270474FF0E8
:1024C000807C1CEB410F38BF1CEB400F01D28842CF
:1024D000704780EA010081EA000180EA0100FFF70D
:1024E000F8BE80F0004090EA010F7FF570AD81F0FA
:1024F000004100F008B8000090EA010F48BF81F0E9
:1025000000413FF564AD421A04D882F00042A0EBCE
:10251000020011444FEAD0524FF07F4C1CEA410FA9
:10252000A2EBD15318BF9CEA026F4AD04FF0004C87
:102530004CEA00204CEA012121FA03FCB0EB0C0C20
:102540000FD412F0FE0F36D05FEA4C001DD50012FA
:1025500040EBC25038BF70471CF03F0F18BF7047A8
:102560000BE0A2F101025FEA1C2040EBC25038BF31
:1025700070471CF07F0F18BF7047C3F120039940CC
:1025800014BF401E20F00100704780084FEA12235C
:1025900008BF7047B0FA80FCA2EB0C02CCF1280C0B
:1025A00060FA0CF093EA122F04BF00EBC2507047A0
:1025B0004FEAC3707047130A5FEADC1008BF704728
:1025C000F6E79CEA026F04D010EA5C0F08BF002017
:1025D000704710B5FFF709FF40DFF63E81F000407D
:1025E000704700000426000800000020BC00000026
:1025F0006C010008C0260008BC000020B4070000E1
:102600008801000800A24A04000000000000000049
:102610000102030406070809000000000102030488
:10262000010203040607080902040608000000006E
:1026300006000000B4012342B0812342AC81234252
:10264000908123428C812342888123423801234296
:1026500000812142048121420C81224210812242C8
:10266000148122420000000000000000409C000095
:1026700000000000000000000000000004FF000057
:102680000000000000FF003C00000000000F000BF5
:1026900000090001000201000000C04100004040AC
:1026A00000001E00000000001900000100000000F2
:1026B0005AA500000000000000000000000000001B
:0400000508000131BD
:00000001FF
