:020000040800F2
:10000000F8080020CD010008C509000869090008AA
:10001000C1090008A9030008CF150008000000006E
:10002000000000000000000000000000790C000843
:1000300029080008000000004D0A000851110008BE
:10004000E7010008E7010008E7010008E7010008F0
:10005000E7010008E7010008E7010008E7010008E0
:10006000E7010008E7010008E7010008E7010008D0
:10007000E7010008E7010008E7010008E7010008C0
:10008000E7010008E7010008E7010008E7010008B0
:10009000E7010008E7010008E7010008E7010008A0
:1000A000E7010008E7010008E7010008E701000890
:1000B000E7010008E7010008E7010008E701000880
:1000C000E7010008E7010008E7010008E701000870
:1000D000E701000825130008E7010008A113000844
:1000E000E7010008E7010008E7010008E701000850
:1000F000E7010008E7010008E7010008E701000840
:10010000E7010008E7010008B5110008E701000851
:10011000E7010008E7010008F5110008E701000801
:10012000E7010008E7010008E7010008E70100080F
:1001300000F002F800F03AF80AA090E8000C8244BF
:100140008344AAF10107DA4501D100F02FF8AFF29C
:10015000090EBAE80F0013F0010F18BFFB1A43F0A5
:1001600001031847C81F0000E81F0000103A24BF11
:1001700078C878C1FAD8520724BF30C830C144BF0C
:1001800004680C607047000000230024002500264E
:10019000103A28BF78C1FBD8520728BF30C148BFEA
:1001A0000B6070471FB51FBD10B510BD00F031F8D2
:1001B0001146FFF7F7FF01F023FB00F04FF803B4FF
:1001C000FFF7F2FF03BC00F057F800000948804732
:1001D00009480047FEE7FEE7FEE7FEE7FEE7FEE729
:1001E000FEE7FEE7FEE7FEE704480549054A064B41
:1001F000704700005511000831010008F802002086
:10020000F8080020F8040020F80400207047704728
:100210007047754600F02CF8AE4605006946534617
:1002200020F00700854618B020B5FFF7DDFFBDE8D8
:1002300020404FF000064FF000074FF000084FF04D
:10024000000B21F00701AC46ACE8C009ACE8C009DE
:10025000ACE8C009ACE8C0098D46704710B504464B
:10026000AFF300802046BDE81040FFF7A8BF0000B4
:10027000004870479402002001491820ABBEFEE7F9
:10028000260002007047000070B58CB004460D4691
:10029000174800F0FFF90121084600F0D9FB154886
:1002A0000190029404950020039005908020069010
:1002B0000020079008900B9009904FF400500A908E
:1002C00001A90B4800F090FA0121094800F0D6F985
:1002D000012240210748001F01F09FF80548001F38
:1002E0000088C6B203480088C6B20CB070BD0000DA
:1002F000300002400448004000B587B001210820CA
:1003000000F0B6FB0121880400F0B2FB4FF400605E
:10031000ADF8180004208DF81B0006A9204800F055
:1003200084FA4FF48060ADF8180018208DF81B0097
:1003300003208DF81A0006A9194800F076FA4FF448
:10034000165002900020ADF80C00ADF80E00ADF88C
:100350001000ADF814000C20ADF8120002A91148ED
:1003600001F0C0F827208DF804004FF4C06000F0C1
:1003700063FB01208DF805008DF806008DF807005D
:1003800001A800F021FB012240F22441054801F0C0
:1003900084F80121034801F034F807B000BD0000E3
:1003A000000C01400048004000BFFEE72DE9F04787
:1003B0000746002400260025A6480078FF287DD1A6
:1003C000012F06D0032F4FD0112F78D0122F77D1C5
:1003D00013E10D25AA222146641C9F484254552250
:1003E0002146641C42542046641C9B490D542046FF
:1003F000641C0F5400222146641C97484254214635
:10040000641C42542146641C42542046641C924998
:100410000A54924802782146641C8F4842548F48FF
:1004200042782046641C8C490A548C4882792046C4
:10043000641C0A548948C2792046641C0A54A81EC8
:10044000095CE81E844A105C0144281F105C0144CA
:10045000681F105C0E18F6B22046641C11460E543C
:1004600000207C490870F1E01125AA222046641C76
:1004700079490A5455222046641C0A542046641CBB
:100480000D542046641C0F54754802782046641CA5
:100490000A54734842782146641C6F48425470489D
:1004A00082782146641C6C4842546D48C2782046CC
:1004B000641C69490A546B48027802E0C7E073E0A3
:1004C000C3E02046641C0A54664842782046641CF7
:1004D0000A54644882782146641C5F48425461484B
:1004E000C2782046641C5C490A545F480278204662
:1004F000641C0A545C480078012818D15B480068E5
:1005000001F098FC5A494870487801F0AFFC8246E7
:1005100056480168504601F089FD8146554901F071
:10052000B9FC804601F086FC5149887017E05248BA
:10053000006801F07FFC4E494870487801F096FC55
:1005400082464D480168504601F070FD8146494998
:1005500001F0A0FC804601F06DFC454988704448DC
:1005600040782146641C3C4A5054414880782146DA
:10057000641C505411222046641C37490A54A81E9A
:10058000095CE81E344A105C0144281F105C0144D9
:10059000681F105C0E18F6B22046641C11460E54FB
:1005A00000202C49087051E00625AA222146641C2F
:1005B0002948425455222146641C42542046641C5A
:1005C00025490D542046641C0F542046641C0F54CA
:1005D000A81E095CE81E204A105C0144281F105C1C
:1005E0000144681F105C0E18F6B22046641C1146C8
:1005F0000E5400201749087028E00625AA2220463C
:10060000641C15490A5455222046641C0A5420468D
:10061000641C0D542046641C0F542046641C0F5467
:10062000A81E095CE81E0C4A105C0144281F105CDF
:100630000144681F105C0E18F6B22046641C114677
:100640000E5400200349087000E000BF00BFBDE861
:10065000F08700008100002062020020820000205C
:100660008A0000208E0000209200002094000020CC
:10067000A70000200000C8429800002021B10268B5
:1006800042F00102026004E002684FF6FE731A4075
:100690000260704701684FF6FE7211400160002150
:1006A000016041608160C1604B49884208D14A497C
:1006B0000839496841F00F01474A083A51608AE019
:1006C00045491431884208D143490839496841F005
:1006D000F001414A083A51607DE03F4928318842A3
:1006E00008D13D490839496841F470613A4A083AED
:1006F000516070E038493C31884208D136490839A8
:10070000496841F47041344A083A516063E0324923
:100710005031884208D130490839496841F4702184
:100720002D4A083A516056E02B496431884208D17D
:1007300029490839496841F47001274A083A51604B
:1007400049E025497831884208D123490839496868
:1007500041F07061204A083A51603CE01F498842EC
:1007600006D1011F096841F00F01021F116032E03C
:100770001A491431884208D11849091F096841F003
:10078000F001164A121F116025E0144928318842F1
:1007900008D11249091F096841F470610F4A121FFC
:1007A000116018E00D493C31884208D10B49091FFE
:1007B000096841F47041094A121F11600BE00749B2
:1007C0005031884207D10549091F096841F4702159
:1007D000024A121F116070470800024008040240DC
:1007E0000146486880B2704710B50022026847F69B
:1007F000F0739A430C6A8B6823430C6923434C695A
:1008000023438C692343CC6923434C6A23438C6A7A
:1008100023431A430260CB6843600B6883604B68D4
:10082000C36010BD4160704770472DE9F04102463A
:1008300000250026002000230024002791F803C093
:100840000CF00F0591F803C00CF0100CBCF1000F78
:1008500003D091F802C04CEA050591F800C0BCF144
:10086000000F31D0146800202BE04FF0010C0CFA7F
:1008700000F3B1F800C00CEA03069E4220D18300C9
:100880004FF00F0C0CFA03F7BC4305FA03FC4CEADB
:10089000040491F803C0BCF1280F06D14FF0010CFD
:1008A0000CFA00FCC2F814C00AE091F803C0BCF1D5
:1008B000480F05D14FF0010C0CFA00FCC2F810C033
:1008C000401C0828D1D31460B1F800C0BCF1FF0F60
:1008D00034DD546800202EE000F1080C4FF00108D0
:1008E00008FA0CF3B1F800C00CEA03069E4221D1CD
:1008F00083004FF00F0C0CFA03F7BC4305FA03FC1E
:100900004CEA040491F803C0BCF1280F05D100F1B2
:10091000080C08FA0CF8C2F8148091F803C0BCF176
:10092000480F07D100F1080C4FF0010808FA0CF845
:10093000C2F81080401C0828CED35460BDE8F08176
:1009400010B500BF064800F07BFC0649096801EBC2
:100950004102C2EBC11100EBC104204610BD0000F2
:10096000001000406C00002000BFFEE708B5012128
:10097000402000F08DF803208DF802002020ADF813
:10098000000010208DF8030069460B48FFF74DFF6B
:100990000121102000F07CF803208DF802004FF4B4
:1009A0000070ADF8000010208DF803006946034880
:1009B000FFF73BFF08BD0000001801400010014098
:1009C00000BFFEE77047000070B5002100230F2232
:1009D000C47804B3154C246804F4E064C4F5E064FE
:1009E000210AC1F10403CA40447804FA03F184786F
:1009F0001440214309010E4C0678A155047804F0F7
:100A00001F050124AC4005786D11AD0005F1E0250E
:100A1000C5F8004109E0047804F01F050124AC404A
:100A2000044D0678761145F8264070BD0CED00E0C7
:100A300000E400E080E100E002490143024A116065
:100A4000704700000000FA050CED00E07047000060
:100A500029B1064A52690243044B5A6104E0034A31
:100A600052698243014B5A617047000000100240F6
:100A700029B1064AD2690243044BDA6104E0034A11
:100A8000D2698243014BDA617047000000100240D6
:100A900029B1064A92690243044B9A6104E0034A71
:100AA00092698243014B9A61704700000010024036
:100AB00030B500210022002400232D4D6D6805F083
:100AC0000C0121B1042905D0082923D105E0294DC5
:100AD000056022E0274D05601FE0254D6D6805F497
:100AE0007012234D6D6805F48034022505EB9242A7
:100AF0001CB9214D554305600BE01D4D6D6805F493
:100B000000351DB11C4D5543056002E0194D55439C
:100B1000056002E0174D056000BF00BF144D6D6811
:100B200005F0F0010909154D6B5C0568DD40456075
:100B30000F4D6D6805F4E061090A104D6B5C456866
:100B4000DD4085600A4D6D6805F46051C90A0B4DA2
:100B50006B5C4568DD40C560054D6D6805F440413E
:100B6000890B074D6B5CC568B5FBF3F5056130BDBE
:100B70000010024000127A0000093D00140000201D
:100B80002400002000B587B001210420FFF780FF7A
:100B900001218803FFF77CFF4FF48060ADF8180057
:100BA00004208DF81B0006A92048FFF73EFE4FF4F5
:100BB0000070ADF8180018208DF81B0003208DF888
:100BC0001A0006A91948FFF730FE4FF4E1300290F1
:100BD0000020ADF80C00ADF80E00ADF81000ADF837
:100BE00014000C20ADF8120002A9114800F07AFCA4
:100BF00025208DF804004FF4C060FFF71DFF012091
:100C00008DF805008DF806008DF8070001A8FFF7A4
:100C1000DBFE012240F22551054800F03EFC012197
:100C2000034800F0EEFB07B000BD000000080140E3
:100C30000038014010B504462146074800F0C3FCC7
:100C400000BF4021044800F0F1FB0028F9D040210A
:100C5000014800F0CDFB10BD0038014070B50446DE
:100C6000002504E0605DFFF7E5FF681CC5B2207851
:100C7000401CA842F6DC70BD7047000010B50A4960
:100C80000A4A1278885C00F07BFB08480078401C18
:100C900006490870044880780978884202DCFF2001
:100CA0000249087010BD000062020020810000208F
:100CB00010B500F001F810BD0CB5002001900090B7
:100CC0003348006840F480303149086000BF304844
:100CD000006800F4003000900198401C01900098DA
:100CE00018B90198B0F5A06FF1D12948006800F457
:100CF000003010B10120009001E000200090009829
:100D0000012843D12348006840F0100021490860C1
:100D10000846006820F0030008600846006840F0BC
:100D2000020008601A48406819494860084640684F
:100D300048600846406840F4806048600846406863
:100D400020F47C1048600846406840F4E810486091
:100D50000846006840F08070086000BF0C480068DA
:100D600000F000700028F9D00948406820F0030026
:100D7000074948600846406840F00200486000BFEC
:100D80000348406800F00C000828F9D10CBD0000B1
:100D9000001002400020024010B54D4800780328A2
:100DA00045D005DC48B1012815D002286FD114E0E8
:100DB000122878D01328F9D10EE0FFF7E3FE00F0F7
:100DC0005DFDFFF799FA14214248FFF75DFA022012
:100DD0003F49087079E078E077E03F480088B0F557
:100DE000FA7F0AD13D48006808B9012000E00020E0
:100DF0003A4908600020384908803948007858B1DD
:100E0000012802D002280FD107E0032030490870E2
:100E100000203449087008E007E012202C490870CF
:100E200000202F49087000E000BF00BF4DE02A48B5
:100E30000088B0F5FA7F0AD12B48006808B9012074
:100E400000E0002028490860002023490880254848
:100E5000007878B90320FFF7A9FA04E0FFF70EFF46
:100E6000012000F065FC21480078FF28F6D1012020
:100E70001C4908701A48007828B1012802D00228BD
:100E80000ED106E00DE002201149087009E01BE0D8
:100E900009E012200E49087000201149087000E096
:100EA00000BF00BF11E01220FFF780FA04E0FFF757
:100EB000E5FE012000F03CFC0C480078FF28F6D14C
:100EC00002200349087000E000BF00BF10BD000011
:100ED000700000208002002074000020A401224243
:100EE0007100002072000020940123428100002044
:100EF00008B501214FF4F470FFF7CAFD4FF400501C
:100F0000ADF8000010208DF8030003208DF80200DA
:100F100069462248FFF789FC41F61C00ADF8000045
:100F200010208DF8030003208DF8020069461C484C
:100F3000FFF77BFC4FF48040ADF8000004208DF8F3
:100F4000030003208DF8020069461448FFF76DFC8A
:100F50000320ADF8000004208DF8030003208DF875
:100F6000020069460F48FFF760FC3820ADF800002A
:100F700004208DF8030003208DF8020069460A481A
:100F8000FFF753FC002005E00021084A52F820201A
:100F90001160401C0628F7DB08BD00000018014066
:100FA000001C0140000C01400014014030000020F2
:100FB00010B50021014800F037F910BD00100040C5
:100FC0001FB501211020FFF753FD0020ADF80A00E6
:100FD0004720ADF804000020ADF8060040F2E730ED
:100FE000ADF8080000208DF80C0001A90F4800F0B2
:100FF00047F936208DF8000000208DF8010001200F
:101000008DF802008DF803006846FFF7DDFC012132
:10101000064800F003F901221146044800F024F9C3
:101020000021024800F000F91FBD00000010004040
:1010300010B50021054800F020F90020044908609F
:101040000121024800F0F0F810BD0000001000403F
:101050006C0000202DE9F0478146A9F10104002031
:10106000294941F82400294941F824000120284950
:1010700051F824100860142000F076FBFFF798FF69
:10108000FFF7D6FF0020224951F82410086000BF66
:10109000204850F8240000680028F9D0FFF750FCE1
:1010A000194941F824003C2000F05EFB01201A4958
:1010B000085500BF174850F8240000680128F9D0EF
:1010C000FFF73EFC114941F82400FFF771FF0F487C
:1010D00050F824000C4951F82410401A0F4941F8E7
:1010E000240051F8240000F0D8FD074600220C4BE4
:1010F00000F04EFC054600F0A3FD0A4921F814005B
:101100000120BDE8F0870000B4000020DC000020D2
:1011100030000020480000202C01002004010020A5
:1011200000C04C4036010020042808D14FF0E021D7
:10113000096941F004014FF0E022116107E04FF02E
:10114000E021096921F004014FF0E02211617047AC
:101150007047000010B51348006840F001001149C5
:10116000086008464068104908400E494860084633
:1011700000680E4908400B4908600846006820F4E2
:10118000802008600846406820F4FE0048604FF464
:101190001F008860FFF78CFD4FF000600449086075
:1011A00010BD0000001002400000FFF8FFFFF6FE37
:1011B00008ED00E010B500210C4800F035F80121E1
:1011C0000A4800F040F880B10121084800F029F8F1
:1011D00007480088401C0649088000F0FBF9FFF72B
:1011E000DBFD0121014800F01FF810BD000C00409C
:1011F0007400002010B50121064800F024F840B129
:101200000121044800F00DF803480068401C024921
:10121000086010BD001000406C000020CA4302822C
:101220007047CA430282704721B1028842F001022E
:10123000028004E002884FF6FE731A400280704775
:101240000146888C704730B50246002000230024F8
:10125000158A05EA0103958905EA010413B10CB169
:10126000012000E0002030BD1AB183890B43838147
:1012700002E083898B43838170478184704700003B
:10128000002202881D4B98420ED01D4B98420BD075
:10129000B0F1804F08D01B4B984205D01A4B9842B2
:1012A00002D01A4B984204D14FF68F731A404B88E4
:1012B0001A43174B984207D0164B984204D04FF66A
:1012C000FF431A40CB881A4302808B8883850B88A2
:1012D00003850A4B98420BD0094B984208D00E4B1D
:1012E000984205D00D4B984202D00D4B984201D147
:1012F0000B7A03860123838270470000002C014093
:10130000003401400004004000080040000C004090
:101310000010004000140040004001400044014023
:101320000048014010B540F22551114800F08BF8FB
:10133000E0B120210E4800F079F8B8B120210C4826
:1013400000F056F80A4800F039F9C4B209480A49D1
:101350000988445408480088401C0749088008460A
:101360000088052802D101200449087010BD000042
:10137000003801405E010020760000207D00002042
:1013800010B504462146054800F01DF900BF402174
:10139000024800F04BF80028F9D010BD004400408E
:1013A00010B540F224410F4800F04DF8C8B10D4887
:1013B0000088C4B20B48001D0088C4B200210A484E
:1013C000FFF75CF90848FFF70BFAC4B2142106488E
:1013D000FFF728FA01210448FFF750F901200349DB
:1013E000087010BD0048004030000240AB000020F3
:1013F00001F40072B2F5007F00D100BFCA43028041
:10140000704721B1828942F40052828104E08289CE
:101410004DF6FF731A40828170471AB1838A0B43DD
:10142000838202E0838A8B438382704702460020D6
:10143000B1F5007F00D100BF13880B400BB1012034
:1014400000E00020704770B502460024002300250C
:10145000002040F66A16B14200D100BFC1F3421528
:1014600001F01F03012606FA03F3012D02D196892C
:10147000334006E0022D02D1168A334001E0968AFD
:1014800033400C12012606FA04F41688344013B1D6
:101490000CB1012000E0002070BDF0B5034600242F
:1014A00000260025002040F66A17B94200D100BF8F
:1014B0001846C1F3421401F01F06012707FA06F58A
:1014C000012C01D10C3004E0022C01D1103000E0DD
:1014D00014301AB107682F43076002E00768AF4372
:1014E0000760F0BD2DE9F04786B005460E460024A2
:1014F000A24600BFA1460027B08900B100BF2F4619
:101500002C8A4CF6FF700440F08804432C82AC898E
:101510004EF6F3100440B0883189084371890843BE
:101520000443AC81AC8A4FF6FF400440B0890443C9
:10153000AC8201A8FFF7BCFA1F48874202D1DDF850
:1015400010A001E0DDF80CA0A88900F4004040B133
:101550000AEBCA0000EB0A1031684900B0FBF1F851
:1015600007E00AEBCA0000EB0A1031688900B0FB03
:10157000F1F86420B8FBF0F004012009642101FBBC
:101580001089A88900F4004040B1322000EBC90066
:10159000B0FBF1F000F00700044308E0322000EB5C
:1015A00009106421B0FBF1F000F00F0004432C811E
:1015B00006B0BDE8F0870000003801400146888889
:1015C000C0F308007047C1F308028280704700BF73
:1015D000FEE700002DE9F04135480078012864D18C
:1015E00034488078344988703248C078C8703148AF
:1015F000007908710846FFF731FB2E480078AA28C9
:1016000044D12C484078FF2840D12A48807855287A
:1016100018D101202949087026490979254AD2782C
:1016200041EA022000F039FB06460022244B00F07C
:10163000AFF9044600F07AF92249086001202249F6
:10164000087023E01B488078492818D100201B49E6
:10165000087018490979174AD27841EA022000F047
:101660001CFB06460022164B00F092F9044600F0DF
:101670005DF91649086001201349087006E00D481D
:1016800080784E2802D102200F490870002003E024
:101690000021084A1154401C0D4909888842F7DB93
:1016A00000200B49088002490870BDE8F081000065
:1016B0007D0000205E0100207800002092000020C4
:1016C0000000594094000020710000209800002084
:1016D0007600002010B50446200AFFF7ABFA1E2062
:1016E00000F042F8E0B2FFF7A5FA10BD10B56FF0B8
:1016F0000400FFF719FD0A4800680A49B0FBF1F041
:10170000094908700846007800EB4001C1EBC010A1
:101710004FF6FF7101EAC0000449088010BD0000C7
:101720000000002000127A00280000202A0000207B
:1017300070B504464FF4077094FBF0F0C6B24FF456
:10174000077094FBF0F100FB114085B205E04FF407
:10175000077000F02FF8701EC6B2002EF7D115B139
:10176000284600F027F870BD0146114A12784A4316
:101770004FF0E0235A6100229A611A46126942F042
:1017800001021A6100BF4FF0E022106900F001026F
:101790001AB100F48032002AF5D04FF0E02212692D
:1017A00022F001024FF0E0231A6100229A61704793
:1017B000280000200146114A12884A434FF0E023D6
:1017C0005A6100229A611A46126942F001021A61B6
:1017D00000BF4FF0E022106900F001021AB100F4DE
:1017E0008032002AF5D04FF0E022126922F0010287
:1017F0004FF0E0231A6100229A6170472A0000200E
:10180000FFF7A8FCFFF7B2F8FFF770FF1648FFF7E5
:10181000ABFF0020154908601549C1F894014FF449
:10182000C060FFF709F9FFF7ADF9FFF761FBFFF7BC
:10183000C7FB18E0FF20FFF7FDF901240EE0601C54
:10184000FFF708FC012C04D10A4931F81400FFF716
:1018500041FF42F21070FFF787FF641C022CEEDBA1
:101860000548FFF781FFE5E7A0860100A4012242B9
:10187000000023423601002040420F0000B587B02F
:1018800001210420FFF704F901214804FFF7F0F8D3
:101890000420ADF8180018208DF81B0003208DF8E7
:1018A0001A0006A91F48FEF7C0FF0820ADF818006F
:1018B00004208DF81B0006A91A48FEF7B6FF4FF466
:1018C000E13002900020ADF80C00ADF80E00ADF84C
:1018D0001000ADF814000C20ADF8120002A9124857
:1018E000FFF700FE4FF4C060FFF7A6F826208DF842
:1018F000040001208DF8050002208DF8060001206B
:101900008DF8070001A8FFF75FF8012240F225518A
:101910000548FFF7C2FD01210348FFF772FD07B03C
:1019200000BD0000000801400044004021F00042DA
:10193000A2F16052B2F5801F01F0004328BFD2F13E
:101940007F6C0BD95FEA001C43EAC20242EB507085
:1019500018BF704728BF20F001007047B2F5801F04
:10196000BCBF184670474FEA410C1CF5001F02D25D
:10197000084600F056BB70B500F0A6F900000089DB
:10198000FFF7F6BF4FF00040A0F580007047000061
:101990002DE9C04130B4DFF8A0C23CEA111418BFF1
:1019A0003CEA131400F0EC8081EA03051CEA1114F0
:1019B00044EAD57418BF1CEA131500F0C780A4EBE5
:1019C00005044FF0004545EAC12145EAC32341EA39
:1019D000505143EA525304F17F74994204F50034A4
:1019E0004FEAC0204FEAC22208BF904200F09C801C
:1019F0004FEA13650FF24016765D4FEA134506FB7A
:101A000005F7C7F1807706FB07F74FEAD737A7FB43
:101A100003687642C8F58038A7FB06CE38BFA8F128
:101A2000010807FB08E64FF0000EA6FB028CE6FB60
:101A300003CEDCF1000CCEF1004E38BFAEF1010E4A
:101A4000A6FB0C584FF000074FF00005E6FB0E8791
:101A5000A1FB08C6A0FB07CE16EB0E0645F100055C
:101A6000E1FB076515F1E04E7EBFA4F580345FEA27
:101A700046066D4116F1800745F100054FEA17272C
:101A80004FEA066647EA0567A6F1DE46B6F1805FD3
:101A90004FEA15251FD9384624F0010C05EBC47117
:101AA000BCF1FE6F01EB0C1102D8F0BCBDE8008167
:101AB00024425CBF01F5801E9EEAC47F02D4F0BCC4
:101AC000BDE80081244238D4F0BCA1F1C041BDE89A
:101AD000004100F047B94FEAD22242EA43524FEAAE
:101AE000D323A7FB02864FEAD02040EA415007FBF0
:101AF00003661EEA0E0F4FEAD12105FB026658BFAE
:101B0000A6EB0056B6EB00564FEA520E4EEAC37EE5
:101B100018EB0E0E56EB530EBDD518EB02085E41C6
:101B20007F1C55F10005B6E74FF480154FF0000714
:101B30004FF000064FF00008ADE7F0BC4FF000009A
:101B400001F1C04101F00041BDE8008111EA0C1F24
:101B50000CEA131500D00CE013EA0C1F00F02580EE
:101B60004FF00000F0BC81EA030101F00041BDE844
:101B70000081F0BCBDE8004181EA030100F0F2B849
:101B8000F0BCBDE8004170B500F09EF8097EFC3E57
:101B900000F007B881EA03014FF0000001F00041B6
:101BA000704781EA030100F0DDB8F0BCBDE80041F8
:101BB0004FF0000021497047FFFDFBF9F7F5F4F203
:101BC000F0EEEDEBE9E8E6E4E3E1E0DEDDDBDAD8D8
:101BD000D7D5D4D3D1D0CFCDCCCBCAC8C7C6C5C436
:101BE000C2C1C0BFBEBDBCBBBAB9B8B7B6B5B4B34D
:101BF000B2B1B0AFAEADACABAAA9A8A8A7A6A5A438
:101C0000A3A3A2A1A09F9F9E9D9C9C9B9A999998FB
:101C10009797969595949393929191908F8F8E8E9E
:101C20008D8C8C8B8B8A898988888787868585842B
:101C300084838382828181800000FF070000F87F17
:101C40004FEA1153A3F58063D3F11E03A8BFD3F16C
:101C5000200C08DB4FF0004242EAC12252EA505207
:101C600032FA03F0704709420BD4102BC4BF002096
:101C7000704703F5787CBCF1FF3F05D04FF0FF3093
:101C800070474FF00000704770B500F01DF800BFBE
:101C90004992248000207047F0E710F0004248BFCE
:101CA0004042B0FA80F310FA03F10AD0C3F11D03E9
:101CB00003F580634FEA415002EB035202EBD1215E
:101CC00070474FF0000070470EF1020E2EF0030E29
:101CD0005EF8046B364205D4012A43EB030515F583
:101CE000001F12D8012841EB010C1CF5001F0CD875
:101CF0000ED14FEAD17C15F5001F0CEB4C0C0CF10A
:101D0000020C08BF4CEBD37C04E04FF0080C01E060
:101D10004FEAD37C0CEB4C0526FA05F606F00706D5
:101D2000B6F1040C06D20EEB860CBDE870404CF008
:101D3000010C6047DFE80CF0090B02024FF0004194
:101D40004FF00000A1F5002170BD19461046012892
:101D500051EB010418BFD4F5001484BF002001F03A
:101D6000004170BD0808A0F500114FEA310170472D
:101D700090EA010F48BF81F0004100F16881421AEA
:101D80003CBF801A89184FEAD0524FF07F4C1CEAB2
:101D9000410FA2EBD15318BF9CEA026F00F03B80C9
:101DA0004FF0004C4CEA00204CEA012121FA03FCE0
:101DB00010EB0C0C1ED202F1FF325FEA1C2040EB4C
:101DC000C25038BF70471CF07F0F4FEA400C18BF5D
:101DD000BCF17F4F38BF7047C3F12003994008BF63
:101DE00020F00100BCF17F4F38BF7047A0F1C04028
:101DF00000F017B94FEA3C00000A40EBC25028BF80
:101E00001CF0FF0F4FEA400CE6D018BFBCF17F4F2B
:101E100038BF7047EAE79CEA026F05D010EA5C0F12
:101E200008BF00F00040704710B500F0B4F800BFE4
:101E300064FBBE3E41000B0ED3F19E0208D950F464
:101E400000034FEA032323FA02F048BF40427047E1
:101E500010B500F0A0F800BF499224800020704720
:101E60006FF0004282EA200070470000B0FA80F371
:101E700010FA03F2C3F19D030AD0D90501EB122039
:101E8000530638BF704700F1010008BF20F0010081
:101E9000704700004FF47F0C1CEAD0121EBF1CEAF2
:101EA000D11392EA0C0F93EA0C0F00F0478090EAEE
:101EB000010F48BF42F480724FF0004C4CEA002002
:101EC0004CEA012102EB0302A0FB0113A2F5000280
:101ED000002918BF43F001035B0028BF4FEA33031A
:101EE00042EB22425FEA132C4CEBC2502EBFBCEBFC
:101EF000436FB2F57C0F70474FEA036CBCF1004FA3
:101F000008BF20F00100B2F57C0F38BF70470BD539
:101F100082F0FF0212F5803FC8BF704700F1C04059
:101F2000D8BF00F00040704700F5000C5FEA4C0C91
:101F300048BF7047B0F1C04000F073B890EA010F9D
:101F40000CEAD11348BF42F48072624538BF634542
:101F500004D280EA010000F00040704710B500F0A4
:101F60001AF800BF8900013E00F007B800F009B878
:101F70005FEA410C5FEA1C6C08D080EA010000F0C7
:101F800050B85FEA400C5FEA1C6CF6D14FF000409D
:101F9000A0F5800070470EF1020E2EF0030E5EF8E1
:101FA000044B244204D44FEA4102B2F17F4F11D8CE
:101FB0004FEA4003B3F17F4F0CD80ED14FEAD07CEB
:101FC000B2F17F4F0CEB4C0C0CF1020C08BF4CEB48
:101FD000D17C04E04FF0080C01E04FEAD17C0CEB1F
:101FE0004C0324FA03F404F00704B4F1040C06D201
:101FF0000EEB840CBDE810404CF0010C6047DFE8AC
:102000000CF0070802024FF00040A0F5800010BD60
:102010000846420018BFD2F1807288BF00F000402D
:1020200010BDFF2141EAD050C005704780F000404C
:1020300090EA010F7FF5A3AE81F0004100F007B8F0
:1020400090EA010F48BF81F000413FF598AE421A77
:1020500004D882F00042A0EB020011444FEAD052B3
:102060004FF07F4C1CEA410FA2EBD15318BF9CEA02
:10207000026F4AD04FF0004C4CEA00204CEA01219C
:1020800021FA03FCB0EB0C0C0FD412F0FE0F36D08B
:102090005FEA4C001DD5001240EBC25038BF7047BC
:1020A0001CF03F0F18BF70470BE0A2F101025FEA7E
:1020B0001C2040EBC25038BF70471CF07F0F18BF88
:1020C0007047C3F12003994014BF401E20F0010067
:1020D000704780084FEA122308BF7047B0FA80FCAF
:1020E000A2EB0C02CCF1280C60FA0CF093EA122F50
:1020F00004BF00EBC25070474FEAC3707047130A29
:102100005FEADC1008BF7047F6E79CEA026F04D074
:1021100010EA5C0F08BF0020704710B5FFF73BFFC7
:1021200040DFF63E81F00040704700004C2100087F
:1021300000000020B40000006C010008002200082C
:10214000B4000020440800008801000800A24A04EE
:102150000000000000000000010203040607080957
:10216000000000000102030401020304060708093D
:10217000020406080000000006000000B40123422B
:10218000B0812342AC812342908123428C8123423F
:102190008881234238012342008121420481214267
:1021A0000C81224210812242148122420000000050
:1021B00000000000409C0000000000000000000043
:1021C0000000000004FF00000000000000FF003CD1
:1021D00000000000000F000B0009000100020100D8
:1021E0000000C0410000404000001E000000000050
:1021F00019000001000000005AA5000000000000C6
:0400000508000131BD
:00000001FF
